{
  "contractName": "SimpleVoting",
  "abi": [
    {
      "inputs": [],
      "payable": false,
      "stateMutability": "nonpayable",
      "type": "constructor"
    },
    {
      "anonymous": false,
      "inputs": [
        {
          "indexed": false,
          "internalType": "uint256",
          "name": "proposalId",
          "type": "uint256"
        }
      ],
      "name": "ProposalRegisteredEvent",
      "type": "event"
    },
    {
      "anonymous": false,
      "inputs": [],
      "name": "ProposalsRegistrationEndedEvent",
      "type": "event"
    },
    {
      "anonymous": false,
      "inputs": [],
      "name": "ProposalsRegistrationStartedEvent",
      "type": "event"
    },
    {
      "anonymous": false,
      "inputs": [
        {
          "indexed": false,
          "internalType": "address",
          "name": "voter",
          "type": "address"
        },
        {
          "indexed": false,
          "internalType": "uint256",
          "name": "proposalId",
          "type": "uint256"
        }
      ],
      "name": "VotedEvent",
      "type": "event"
    },
    {
      "anonymous": false,
      "inputs": [
        {
          "indexed": false,
          "internalType": "address",
          "name": "voterAddress",
          "type": "address"
        }
      ],
      "name": "VoterRegisteredEvent",
      "type": "event"
    },
    {
      "anonymous": false,
      "inputs": [],
      "name": "VotesTalliedEvent",
      "type": "event"
    },
    {
      "anonymous": false,
      "inputs": [],
      "name": "VotingSessionEndedEvent",
      "type": "event"
    },
    {
      "anonymous": false,
      "inputs": [],
      "name": "VotingSessionStartedEvent",
      "type": "event"
    },
    {
      "anonymous": false,
      "inputs": [
        {
          "indexed": false,
          "internalType": "enum SimpleVoting.WorkflowStatus",
          "name": "previousStatus",
          "type": "uint8"
        },
        {
          "indexed": false,
          "internalType": "enum SimpleVoting.WorkflowStatus",
          "name": "newStatus",
          "type": "uint8"
        }
      ],
      "name": "WorkflowStatusChangeEvent",
      "type": "event"
    },
    {
      "constant": true,
      "inputs": [],
      "name": "administrator",
      "outputs": [
        {
          "internalType": "address",
          "name": "",
          "type": "address"
        }
      ],
      "payable": false,
      "stateMutability": "view",
      "type": "function"
    },
    {
      "constant": true,
      "inputs": [
        {
          "internalType": "uint256",
          "name": "",
          "type": "uint256"
        }
      ],
      "name": "proposals",
      "outputs": [
        {
          "internalType": "string",
          "name": "description",
          "type": "string"
        },
        {
          "internalType": "uint256",
          "name": "voteCount",
          "type": "uint256"
        }
      ],
      "payable": false,
      "stateMutability": "view",
      "type": "function"
    },
    {
      "constant": true,
      "inputs": [
        {
          "internalType": "address",
          "name": "",
          "type": "address"
        }
      ],
      "name": "voters",
      "outputs": [
        {
          "internalType": "bool",
          "name": "isRegistered",
          "type": "bool"
        },
        {
          "internalType": "bool",
          "name": "hasVoted",
          "type": "bool"
        },
        {
          "internalType": "uint256",
          "name": "votedProposalId",
          "type": "uint256"
        }
      ],
      "payable": false,
      "stateMutability": "view",
      "type": "function"
    },
    {
      "constant": true,
      "inputs": [],
      "name": "workflowStatus",
      "outputs": [
        {
          "internalType": "enum SimpleVoting.WorkflowStatus",
          "name": "",
          "type": "uint8"
        }
      ],
      "payable": false,
      "stateMutability": "view",
      "type": "function"
    },
    {
      "constant": false,
      "inputs": [
        {
          "internalType": "address",
          "name": "_voterAddress",
          "type": "address"
        }
      ],
      "name": "registerVoter",
      "outputs": [],
      "payable": false,
      "stateMutability": "nonpayable",
      "type": "function"
    },
    {
      "constant": false,
      "inputs": [],
      "name": "startProposalsRegistration",
      "outputs": [],
      "payable": false,
      "stateMutability": "nonpayable",
      "type": "function"
    },
    {
      "constant": false,
      "inputs": [],
      "name": "endProposalsRegistration",
      "outputs": [],
      "payable": false,
      "stateMutability": "nonpayable",
      "type": "function"
    },
    {
      "constant": false,
      "inputs": [
        {
          "internalType": "string",
          "name": "proposalDescription",
          "type": "string"
        }
      ],
      "name": "registerProposal",
      "outputs": [],
      "payable": false,
      "stateMutability": "nonpayable",
      "type": "function"
    },
    {
      "constant": true,
      "inputs": [],
      "name": "getProposalsNumber",
      "outputs": [
        {
          "internalType": "uint256",
          "name": "",
          "type": "uint256"
        }
      ],
      "payable": false,
      "stateMutability": "view",
      "type": "function"
    },
    {
      "constant": true,
      "inputs": [
        {
          "internalType": "uint256",
          "name": "index",
          "type": "uint256"
        }
      ],
      "name": "getProposalDescription",
      "outputs": [
        {
          "internalType": "string",
          "name": "",
          "type": "string"
        }
      ],
      "payable": false,
      "stateMutability": "view",
      "type": "function"
    },
    {
      "constant": false,
      "inputs": [],
      "name": "startVotingSession",
      "outputs": [],
      "payable": false,
      "stateMutability": "nonpayable",
      "type": "function"
    },
    {
      "constant": false,
      "inputs": [],
      "name": "endVotingSession",
      "outputs": [],
      "payable": false,
      "stateMutability": "nonpayable",
      "type": "function"
    },
    {
      "constant": false,
      "inputs": [
        {
          "internalType": "uint256",
          "name": "proposalId",
          "type": "uint256"
        }
      ],
      "name": "vote",
      "outputs": [],
      "payable": false,
      "stateMutability": "nonpayable",
      "type": "function"
    },
    {
      "constant": false,
      "inputs": [],
      "name": "tallyVotes",
      "outputs": [],
      "payable": false,
      "stateMutability": "nonpayable",
      "type": "function"
    },
    {
      "constant": true,
      "inputs": [],
      "name": "getWinningProposalId",
      "outputs": [
        {
          "internalType": "uint256",
          "name": "",
          "type": "uint256"
        }
      ],
      "payable": false,
      "stateMutability": "view",
      "type": "function"
    },
    {
      "constant": true,
      "inputs": [],
      "name": "getWinningProposalDescription",
      "outputs": [
        {
          "internalType": "string",
          "name": "",
          "type": "string"
        }
      ],
      "payable": false,
      "stateMutability": "view",
      "type": "function"
    },
    {
      "constant": true,
      "inputs": [],
      "name": "getWinningProposaVoteCounts",
      "outputs": [
        {
          "internalType": "uint256",
          "name": "",
          "type": "uint256"
        }
      ],
      "payable": false,
      "stateMutability": "view",
      "type": "function"
    },
    {
      "constant": true,
      "inputs": [
        {
          "internalType": "address",
          "name": "_voterAddress",
          "type": "address"
        }
      ],
      "name": "isRegisteredVoter",
      "outputs": [
        {
          "internalType": "bool",
          "name": "",
          "type": "bool"
        }
      ],
      "payable": false,
      "stateMutability": "view",
      "type": "function"
    },
    {
      "constant": true,
      "inputs": [
        {
          "internalType": "address",
          "name": "_address",
          "type": "address"
        }
      ],
      "name": "isAdministrator",
      "outputs": [
        {
          "internalType": "bool",
          "name": "",
          "type": "bool"
        }
      ],
      "payable": false,
      "stateMutability": "view",
      "type": "function"
    },
    {
      "constant": true,
      "inputs": [],
      "name": "getWorkflowStatus",
      "outputs": [
        {
          "internalType": "enum SimpleVoting.WorkflowStatus",
          "name": "",
          "type": "uint8"
        }
      ],
      "payable": false,
      "stateMutability": "view",
      "type": "function"
    }
  ],
  "bytecode": "0x608060405234801561001057600080fd5b5033600060016101000a81548173ffffffffffffffffffffffffffffffffffffffff021916908373ffffffffffffffffffffffffffffffffffffffff16021790555060008060006101000a81548160ff0219169083600581111561007057fe5b02179055506120a9806100846000396000f3fe608060405234801561001057600080fd5b506004361061012c5760003560e01c80636c297445116100ad578063e09b8c7911610071578063e09b8c79146105e2578063e81e977b146105ec578063ee74c6781461060a578063f53d0a8e14610614578063f75d64a61461065e5761012c565b80636c297445146104d8578063a1edffa2146104e2578063a3ec138d1461050e578063a7bfab161461057c578063da36cffe146105865761012c565b80632f95355b116100f45780632f95355b1461032e578063378a2178146103e957806337d05ddc146103f357806338db6dd31461047657806341b1b046146104ba5761012c565b80630121b93f14610131578063013cf08b1461015f5780630a2eb3011461020d5780632016e3c114610269578063229acb1714610287575b600080fd5b61015d6004803603602081101561014757600080fd5b810190808035906020019092919050505061068a565b005b61018b6004803603602081101561017557600080fd5b81019080803590602001909291905050506109ab565b6040518080602001838152602001828103825284818151815260200191508051906020019080838360005b838110156101d15780820151818401526020810190506101b6565b50505050905090810190601f1680156101fe5780820380516001836020036101000a031916815260200191505b50935050505060405180910390f35b61024f6004803603602081101561022357600080fd5b81019080803573ffffffffffffffffffffffffffffffffffffffff169060200190929190505050610a74565b604051808215151515815260200191505060405180910390f35b610271610acd565b6040518082815260200191505060405180910390f35b6102b36004803603602081101561029d57600080fd5b8101908080359060200190929190505050610b71565b6040518080602001828103825283818151815260200191508051906020019080838360005b838110156102f35780820151818401526020810190506102d8565b50505050905090810190601f1680156103205780820380516001836020036101000a031916815260200191505b509250505060405180910390f35b6103e76004803603602081101561034457600080fd5b810190808035906020019064010000000081111561036157600080fd5b82018360208201111561037357600080fd5b8035906020019184600183028401116401000000008311171561039557600080fd5b91908080601f016020809104026020016040519081016040528093929190818152602001838380828437600081840152601f19601f820116905080830192505050505050509192919290505050610c31565b005b6103f1610e02565b005b6103fb61105f565b6040518080602001828103825283818151815260200191508051906020019080838360005b8381101561043b578082015181840152602081019050610420565b50505050905090810190601f1680156104685780820380516001836020036101000a031916815260200191505b509250505060405180910390f35b6104b86004803603602081101561048c57600080fd5b81019080803573ffffffffffffffffffffffffffffffffffffffff16906020019092919050505061119b565b005b6104c26114e4565b6040518082815260200191505060405180910390f35b6104e06114f1565b005b6104ea6116cf565b604051808260058111156104fa57fe5b60ff16815260200191505060405180910390f35b6105506004803603602081101561052457600080fd5b81019080803573ffffffffffffffffffffffffffffffffffffffff1690602001909291905050506116e1565b604051808415151515815260200183151515158152602001828152602001935050505060405180910390f35b610584611725565b005b6105c86004803603602081101561059c57600080fd5b81019080803573ffffffffffffffffffffffffffffffffffffffff169060200190929190505050611903565b604051808215151515815260200191505060405180910390f35b6105ea61195c565b005b6105f4611b3a565b6040518082815260200191505060405180910390f35b610612611bc0565b005b61061c611d9e565b604051808273ffffffffffffffffffffffffffffffffffffffff1673ffffffffffffffffffffffffffffffffffffffff16815260200191505060405180910390f35b610666611dc4565b6040518082600581111561067657fe5b60ff16815260200191505060405180910390f35b600160003373ffffffffffffffffffffffffffffffffffffffff1673ffffffffffffffffffffffffffffffffffffffff16815260200190815260200160002060000160009054906101000a900460ff1661072f576040517f08c379a0000000000000000000000000000000000000000000000000000000008152600401808060200182810382526036815260200180611f016036913960400191505060405180910390fd5b6003600581111561073c57fe5b6000809054906101000a900460ff16600581111561075657fe5b146107ac576040517f08c379a000000000000000000000000000000000000000000000000000000000815260040180806020018281038252603a815260200180611f37603a913960400191505060405180910390fd5b600160003373ffffffffffffffffffffffffffffffffffffffff1673ffffffffffffffffffffffffffffffffffffffff16815260200190815260200160002060000160019054906101000a900460ff161561086f576040517f08c379a000000000000000000000000000000000000000000000000000000000815260040180806020018281038252601c8152602001807f7468652063616c6c65722068617320616c726561647920766f7465640000000081525060200191505060405180910390fd5b60018060003373ffffffffffffffffffffffffffffffffffffffff1673ffffffffffffffffffffffffffffffffffffffff16815260200190815260200160002060000160016101000a81548160ff02191690831515021790555080600160003373ffffffffffffffffffffffffffffffffffffffff1673ffffffffffffffffffffffffffffffffffffffff1681526020019081526020016000206001018190555060016002828154811061091f57fe5b9060005260206000209060020201600101600082825401925050819055507f0902475a854b82199b4f5d6b81327ec4c4ec077ce0356a106ddc2748c5285ed33382604051808373ffffffffffffffffffffffffffffffffffffffff1673ffffffffffffffffffffffffffffffffffffffff1681526020018281526020019250505060405180910390a150565b600281815481106109b857fe5b9060005260206000209060020201600091509050806000018054600181600116156101000203166002900480601f016020809104026020016040519081016040528092919081815260200182805460018160011615610100020316600290048015610a645780601f10610a3957610100808354040283529160200191610a64565b820191906000526020600020905b815481529060010190602001808311610a4757829003601f168201915b5050505050908060010154905082565b60008060019054906101000a900473ffffffffffffffffffffffffffffffffffffffff1673ffffffffffffffffffffffffffffffffffffffff168273ffffffffffffffffffffffffffffffffffffffff16149050919050565b6000600580811115610adb57fe5b6000809054906101000a900460ff166005811115610af557fe5b14610b4b576040517f08c379a000000000000000000000000000000000000000000000000000000000815260040180806020018281038252603e815260200180612037603e913960400191505060405180910390fd5b600260035481548110610b5a57fe5b906000526020600020906002020160010154905090565b606060028281548110610b8057fe5b90600052602060002090600202016000018054600181600116156101000203166002900480601f016020809104026020016040519081016040528092919081815260200182805460018160011615610100020316600290048015610c255780601f10610bfa57610100808354040283529160200191610c25565b820191906000526020600020905b815481529060010190602001808311610c0857829003601f168201915b50505050509050919050565b600160003373ffffffffffffffffffffffffffffffffffffffff1673ffffffffffffffffffffffffffffffffffffffff16815260200190815260200160002060000160009054906101000a900460ff16610cd6576040517f08c379a0000000000000000000000000000000000000000000000000000000008152600401808060200182810382526036815260200180611f016036913960400191505060405180910390fd5b60016005811115610ce357fe5b6000809054906101000a900460ff166005811115610cfd57fe5b14610d53576040517f08c379a000000000000000000000000000000000000000000000000000000000815260040180806020018281038252603e815260200180611e80603e913960400191505060405180910390fd5b600260405180604001604052808381526020016000815250908060018154018082558091505090600182039060005260206000209060020201600090919290919091506000820151816000019080519060200190610db2929190611dda565b50602082015181600101555050507fdcd2e8cd237900037efa515c36a3caa6812766647c16535dd5fc3c6fd641154c6001600280549050036040518082815260200191505060405180910390a150565b600060019054906101000a900473ffffffffffffffffffffffffffffffffffffffff1673ffffffffffffffffffffffffffffffffffffffff163373ffffffffffffffffffffffffffffffffffffffff1614610ea8576040517f08c379a0000000000000000000000000000000000000000000000000000000008152600401808060200182810382526035815260200180611f716035913960400191505060405180910390fd5b60046005811115610eb557fe5b6000809054906101000a900460ff166005811115610ecf57fe5b14610f25576040517f08c379a0000000000000000000000000000000000000000000000000000000008152600401808060200182810382526043815260200180611ebe6043913960600191505060405180910390fd5b6000809050600080905060008090505b600280549050811015610f9a578260028281548110610f5057fe5b9060005260206000209060020201600101541115610f8d5760028181548110610f7557fe5b90600052602060002090600202016001015492508091505b8080600101915050610f35565b508060038190555060056000806101000a81548160ff02191690836005811115610fc057fe5b02179055507fa1f82a14ea162408785ef8969f7cf08b2bb72b081f8d4e2eda49846e52f439c660405160405180910390a17f9474022b1c97b70d3479aafe8672c447d1837ad99ae1f735eced168a65252d1660046000809054906101000a900460ff166040518083600581111561103357fe5b60ff16815260200182600581111561104757fe5b60ff1681526020019250505060405180910390a15050565b606060058081111561106d57fe5b6000809054906101000a900460ff16600581111561108757fe5b146110dd576040517f08c379a000000000000000000000000000000000000000000000000000000000815260040180806020018281038252603e815260200180612037603e913960400191505060405180910390fd5b6002600354815481106110ec57fe5b90600052602060002090600202016000018054600181600116156101000203166002900480601f0160208091040260200160405190810160405280929190818152602001828054600181600116156101000203166002900480156111915780601f1061116657610100808354040283529160200191611191565b820191906000526020600020905b81548152906001019060200180831161117457829003601f168201915b5050505050905090565b600060019054906101000a900473ffffffffffffffffffffffffffffffffffffffff1673ffffffffffffffffffffffffffffffffffffffff163373ffffffffffffffffffffffffffffffffffffffff1614611241576040517f08c379a0000000000000000000000000000000000000000000000000000000008152600401808060200182810382526035815260200180611f716035913960400191505060405180910390fd5b6000600581111561124e57fe5b6000809054906101000a900460ff16600581111561126857fe5b146112be576040517f08c379a000000000000000000000000000000000000000000000000000000000815260040180806020018281038252604a815260200180611fa6604a913960600191505060405180910390fd5b600160008273ffffffffffffffffffffffffffffffffffffffff1673ffffffffffffffffffffffffffffffffffffffff16815260200190815260200160002060000160009054906101000a900460ff1615611381576040517f08c379a000000000000000000000000000000000000000000000000000000000815260040180806020018281038252601f8152602001807f74686520766f74657220697320616c726561647920726567697374657265640081525060200191505060405180910390fd5b60018060008373ffffffffffffffffffffffffffffffffffffffff1673ffffffffffffffffffffffffffffffffffffffff16815260200190815260200160002060000160006101000a81548160ff0219169083151502179055506000600160008373ffffffffffffffffffffffffffffffffffffffff1673ffffffffffffffffffffffffffffffffffffffff16815260200190815260200160002060000160016101000a81548160ff0219169083151502179055506000600160008373ffffffffffffffffffffffffffffffffffffffff1673ffffffffffffffffffffffffffffffffffffffff168152602001908152602001600020600101819055507f42b360c89ba65a59ac7fec024a7bbb2c21d84b5abe5b5178ba0d7e34653a813081604051808273ffffffffffffffffffffffffffffffffffffffff1673ffffffffffffffffffffffffffffffffffffffff16815260200191505060405180910390a150565b6000600280549050905090565b600060019054906101000a900473ffffffffffffffffffffffffffffffffffffffff1673ffffffffffffffffffffffffffffffffffffffff163373ffffffffffffffffffffffffffffffffffffffff1614611597576040517f08c379a0000000000000000000000000000000000000000000000000000000008152600401808060200182810382526035815260200180611f716035913960400191505060405180910390fd5b600160058111156115a457fe5b6000809054906101000a900460ff1660058111156115be57fe5b14611614576040517f08c379a000000000000000000000000000000000000000000000000000000000815260040180806020018281038252603e815260200180611e80603e913960400191505060405180910390fd5b60026000806101000a81548160ff0219169083600581111561163257fe5b02179055507ff629233eb3546085ffcbbb79c947a38b98b14a6915bcc004a0c1a34ae38c29d860405160405180910390a17f9474022b1c97b70d3479aafe8672c447d1837ad99ae1f735eced168a65252d1660016000809054906101000a900460ff16604051808360058111156116a557fe5b60ff1681526020018260058111156116b957fe5b60ff1681526020019250505060405180910390a1565b6000809054906101000a900460ff1681565b60016020528060005260406000206000915090508060000160009054906101000a900460ff16908060000160019054906101000a900460ff16908060010154905083565b600060019054906101000a900473ffffffffffffffffffffffffffffffffffffffff1673ffffffffffffffffffffffffffffffffffffffff163373ffffffffffffffffffffffffffffffffffffffff16146117cb576040517f08c379a0000000000000000000000000000000000000000000000000000000008152600401808060200182810382526035815260200180611f716035913960400191505060405180910390fd5b600360058111156117d857fe5b6000809054906101000a900460ff1660058111156117f257fe5b14611848576040517f08c379a000000000000000000000000000000000000000000000000000000000815260040180806020018281038252603a815260200180611f37603a913960400191505060405180910390fd5b60046000806101000a81548160ff0219169083600581111561186657fe5b02179055507f86a7e3ed2917a2b5f100160b6e558c8e7ae6e4fb8f2673d860d3f11b4f345e7260405160405180910390a17f9474022b1c97b70d3479aafe8672c447d1837ad99ae1f735eced168a65252d1660036000809054906101000a900460ff16604051808360058111156118d957fe5b60ff1681526020018260058111156118ed57fe5b60ff1681526020019250505060405180910390a1565b6000600160008373ffffffffffffffffffffffffffffffffffffffff1673ffffffffffffffffffffffffffffffffffffffff16815260200190815260200160002060000160009054906101000a900460ff169050919050565b600060019054906101000a900473ffffffffffffffffffffffffffffffffffffffff1673ffffffffffffffffffffffffffffffffffffffff163373ffffffffffffffffffffffffffffffffffffffff1614611a02576040517f08c379a0000000000000000000000000000000000000000000000000000000008152600401808060200182810382526035815260200180611f716035913960400191505060405180910390fd5b60006005811115611a0f57fe5b6000809054906101000a900460ff166005811115611a2957fe5b14611a7f576040517f08c379a000000000000000000000000000000000000000000000000000000000815260040180806020018281038252604a815260200180611fa6604a913960600191505060405180910390fd5b60016000806101000a81548160ff02191690836005811115611a9d57fe5b02179055507f65b51a6e225dbda234ac3ca54831842456809aa60205dd84e758670106b4a6f360405160405180910390a17f9474022b1c97b70d3479aafe8672c447d1837ad99ae1f735eced168a65252d1660008060009054906101000a900460ff1660405180836005811115611b1057fe5b60ff168152602001826005811115611b2457fe5b60ff1681526020019250505060405180910390a1565b6000600580811115611b4857fe5b6000809054906101000a900460ff166005811115611b6257fe5b14611bb8576040517f08c379a000000000000000000000000000000000000000000000000000000000815260040180806020018281038252603e815260200180612037603e913960400191505060405180910390fd5b600354905090565b600060019054906101000a900473ffffffffffffffffffffffffffffffffffffffff1673ffffffffffffffffffffffffffffffffffffffff163373ffffffffffffffffffffffffffffffffffffffff1614611c66576040517f08c379a0000000000000000000000000000000000000000000000000000000008152600401808060200182810382526035815260200180611f716035913960400191505060405180910390fd5b60026005811115611c7357fe5b6000809054906101000a900460ff166005811115611c8d57fe5b14611ce3576040517f08c379a0000000000000000000000000000000000000000000000000000000008152600401808060200182810382526047815260200180611ff06047913960600191505060405180910390fd5b60036000806101000a81548160ff02191690836005811115611d0157fe5b02179055507ffca8377aff3a08252b769c58e6769a534922eabaaf9952691ea9cfcaed41fbd860405160405180910390a17f9474022b1c97b70d3479aafe8672c447d1837ad99ae1f735eced168a65252d1660026000809054906101000a900460ff1660405180836005811115611d7457fe5b60ff168152602001826005811115611d8857fe5b60ff1681526020019250505060405180910390a1565b600060019054906101000a900473ffffffffffffffffffffffffffffffffffffffff1681565b60008060009054906101000a900460ff16905090565b828054600181600116156101000203166002900490600052602060002090601f016020900481019282601f10611e1b57805160ff1916838001178555611e49565b82800160010185558215611e49579182015b82811115611e48578251825591602001919060010190611e2d565b5b509050611e569190611e5a565b5090565b611e7c91905b80821115611e78576000816000905550600101611e60565b5090565b9056fe746869732066756e6374696f6e2063616e2062652063616c6c6564206f6e6c7920647572696e672070726f706f73616c7320726567697374726174696f6e746869732066756e6374696f6e2063616e2062652063616c6c6564206f6e6c792061667465722074686520766f74696e672073657373696f6e2068617320656e6465647468652063616c6c6572206f6620746869732066756e6374696f6e206d7573742062652061207265676973746572656420766f746572746869732066756e6374696f6e2063616e2062652063616c6c6564206f6e6c7920647572696e672074686520766f74696e672073657373696f6e7468652063616c6c6572206f6620746869732066756e6374696f6e206d757374206265207468652061646d696e6973747261746f72746869732066756e6374696f6e2063616e2062652063616c6c6564206f6e6c79206265666f72652070726f706f73616c7320726567697374726174696f6e206861732073746172746564746869732066756e6374696f6e2063616e2062652063616c6c6564206f6e6c792061667465722070726f706f73616c7320726567697374726174696f6e2068617320656e646564746869732066756e6374696f6e2063616e2062652063616c6c6564206f6e6c7920616674657220766f7465732068617665206265656e2074616c6c696564a265627a7a7231582068dd478879e33199f1bd25a7e8add39db3f0b90ba9ebdb2b0a6991898fd291f564736f6c63430005100032",
  "source": "//SPDX-License_identifier: MIT\npragma solidity >=0.4.22 <0.9.0;\n\ncontract SimpleVoting {\n    \n    struct Voter {\n        bool isRegistered;\n        bool hasVoted;  \n        uint votedProposalId;   \n    }\n    \n    struct Proposal {\n        string description;   \n        uint voteCount; \n    }\n    \n    enum WorkflowStatus {\n        RegisteringVoters, \n        ProposalsRegistrationStarted,\n        ProposalsRegistrationEnded,\n        VotingSessionStarted,\n        VotingSessionEnded,\n        VotesTallied\n    }\n    \n    WorkflowStatus public workflowStatus;\n    address public administrator;\n    mapping(address => Voter) public voters;\n    Proposal[] public proposals;\n    uint private winningProposalId;\n    \n    modifier onlyAdministrator() {\n       require(msg.sender == administrator, \"the caller of this function must be the administrator\");\n       _;\n    }\n    \n    modifier onlyRegisteredVoter() {\n        require(voters[msg.sender].isRegistered, \n           \"the caller of this function must be a registered voter\");\n       _;\n    }\n    \n    modifier onlyDuringVotersRegistration() {\n        require(workflowStatus == WorkflowStatus.RegisteringVoters, \n           \"this function can be called only before proposals registration has started\");\n       _;\n    }\n    \n    modifier onlyDuringProposalsRegistration() {\n        require(workflowStatus == WorkflowStatus.ProposalsRegistrationStarted, \n           \"this function can be called only during proposals registration\");\n       _;\n    }\n    \n    modifier onlyAfterProposalsRegistration() {\n        require(workflowStatus == WorkflowStatus.ProposalsRegistrationEnded,  \n           \"this function can be called only after proposals registration has ended\");\n       _;\n    }\n    \n    modifier onlyDuringVotingSession() {\n        require(workflowStatus == WorkflowStatus.VotingSessionStarted, \n           \"this function can be called only during the voting session\");\n       _;\n    }\n    \n    modifier onlyAfterVotingSession() {\n        require(workflowStatus == WorkflowStatus.VotingSessionEnded,  \n           \"this function can be called only after the voting session has ended\");\n       _;\n    }\n    \n    modifier onlyAfterVotesTallied() {\n        require(workflowStatus == WorkflowStatus.VotesTallied,  \n           \"this function can be called only after votes have been tallied\");\n       _;\n    }\n    \n\tevent VoterRegisteredEvent (\n\t\taddress voterAddress\n\t); \n\t\n\tevent ProposalsRegistrationStartedEvent ();\n\t\n\tevent ProposalsRegistrationEndedEvent ();\n\t\n\tevent ProposalRegisteredEvent(\n\t    uint proposalId\n\t);\n\t\n\tevent VotingSessionStartedEvent ();\n\t\n\tevent VotingSessionEndedEvent ();\n\t\n\tevent VotedEvent (\n\t    address voter,\n\t    uint proposalId\n\t);\n\t\n\tevent VotesTalliedEvent ();\n\t\n\tevent WorkflowStatusChangeEvent (\n        WorkflowStatus previousStatus,\n        WorkflowStatus newStatus\n    );\n    \n    constructor() public {\n        administrator = msg.sender;\n        workflowStatus = WorkflowStatus.RegisteringVoters;\n    }\n    \n    function registerVoter(address _voterAddress) \n        public onlyAdministrator onlyDuringVotersRegistration {\n        \n        require(!voters[_voterAddress].isRegistered, \"the voter is already registered\");\n        \n        voters[_voterAddress].isRegistered = true;\n        voters[_voterAddress].hasVoted = false;\n        voters[_voterAddress].votedProposalId = 0;\n        \n        emit VoterRegisteredEvent(_voterAddress);\n    }\n    \n    function startProposalsRegistration() \n        public onlyAdministrator onlyDuringVotersRegistration {\n        workflowStatus = WorkflowStatus.ProposalsRegistrationStarted;\n        \n        emit ProposalsRegistrationStartedEvent();\n        emit WorkflowStatusChangeEvent(\n            WorkflowStatus.RegisteringVoters, workflowStatus);\n    }\n    \n    function endProposalsRegistration() \n        public onlyAdministrator onlyDuringProposalsRegistration {\n        workflowStatus = WorkflowStatus.ProposalsRegistrationEnded;\n        \n        emit ProposalsRegistrationEndedEvent();\n        emit WorkflowStatusChangeEvent(\n            WorkflowStatus.ProposalsRegistrationStarted, workflowStatus);\n    }\n    \n    function registerProposal(string memory proposalDescription) \n        public onlyRegisteredVoter onlyDuringProposalsRegistration {\n        proposals.push(Proposal({\n            description: proposalDescription,\n            voteCount: 0\n        }));\n        \n        emit ProposalRegisteredEvent(proposals.length - 1);\n    }\n    \n\tfunction getProposalsNumber() public view\n\t    returns (uint) {\n\t    return proposals.length;\n\t}\n\t\n\tfunction getProposalDescription(uint index) public view \n\t    returns (string memory) {\n\t    return proposals[index].description;\n\t}    \n\n    function startVotingSession() \n        public onlyAdministrator onlyAfterProposalsRegistration {\n        workflowStatus = WorkflowStatus.VotingSessionStarted;\n        \n        emit VotingSessionStartedEvent();\n        emit WorkflowStatusChangeEvent(\n            WorkflowStatus.ProposalsRegistrationEnded, workflowStatus);\n    }\n    \n    function endVotingSession() \n        public onlyAdministrator onlyDuringVotingSession {\n        workflowStatus = WorkflowStatus.VotingSessionEnded;\n        \n        emit VotingSessionEndedEvent();\n        emit WorkflowStatusChangeEvent(\n            WorkflowStatus.VotingSessionStarted, workflowStatus);        \n    }\n    \n    function vote(uint proposalId) onlyRegisteredVoter onlyDuringVotingSession public {\n        require(!voters[msg.sender].hasVoted, \"the caller has already voted\");\n        \n        voters[msg.sender].hasVoted = true;\n        voters[msg.sender].votedProposalId = proposalId;\n        \n        proposals[proposalId].voteCount += 1;\n        \n        emit VotedEvent(msg.sender, proposalId);\n    }\n    \n    function tallyVotes() onlyAdministrator onlyAfterVotingSession public {\n        uint winningVoteCount = 0;\n        uint winningProposalIndex = 0;\n        \n        for (uint i = 0; i < proposals.length; i++) {\n            if (proposals[i].voteCount > winningVoteCount) {\n                winningVoteCount = proposals[i].voteCount;\n                winningProposalIndex = i;\n            }\n        }\n        \n        winningProposalId = winningProposalIndex;\n        workflowStatus = WorkflowStatus.VotesTallied;\n        \n        emit VotesTalliedEvent();\n        emit WorkflowStatusChangeEvent(\n            WorkflowStatus.VotingSessionEnded, workflowStatus);     \n    }\n    \n    function getWinningProposalId() onlyAfterVotesTallied public view\n       returns (uint) {\n        return winningProposalId;\n    }\n    \n    function getWinningProposalDescription() onlyAfterVotesTallied public view\n       returns (string memory) {\n        return proposals[winningProposalId].description;\n    }  \n    \n    function getWinningProposaVoteCounts() onlyAfterVotesTallied public view\n       returns (uint) {\n        return proposals[winningProposalId].voteCount;\n    }   \n    \n    function isRegisteredVoter(address _voterAddress) public view\n\t   returns (bool) {\n\t   return voters[_voterAddress].isRegistered;\n\t}\n\t\n\tfunction isAdministrator(address _address) public view \n\t    returns (bool) {\n\t    return _address == administrator;\n\t}\t\n\t\n\tfunction getWorkflowStatus() public view\n\t    returns (WorkflowStatus) {\n\t    return workflowStatus;       \n\t}\n}",
  "sourcePath": "/Users/ecc02g34j3q05p/Documents/Personal/e-voting/contracts/SimpleVoting.sol",
  "compiler": {
    "name": "solc",
    "version": "0.5.16+commit.9c3226ce.Emscripten.clang"
  },
  "schemaVersion": "3.4.9",
  "updatedAt": "2022-08-30T17:34:18.819Z",
  "networkType": "ethereum",
  "devdoc": {
    "methods": {}
  },
  "userdoc": {
    "methods": {}
  }
}